:100DFD005068616900547261690053746F700054DA
:100E0D006F6320646F3A00202550574D00762F7088
:010E1D0000D4
:100EDA00022400000227000002290000022B000061
:080EEA00022D0000022F0000A0
:100F4200E4FDFCC3ED9FEC9E50070DBD00010C803B
:010F5200F2AC
:010F5300227B
:100E1E00E4FDFCC3ED9FEC9E5015E4FBFA0BBB000A
:0F0E2E00010AEB647D4A70F50DBD00010C80E4F4
:010E3D002292
:030F2F00120EBEE1
:100F3200D2A27F037E00120F42C2A27F32020F4270
:100EBE00EF1392A4EFC3131392A5EF1313543F1322
:0C0ECE0092A6EF131313541F1392A722D7
:100F5400AB07EBC4540FFF120F2FAF03120EBE02E8
:020F64000F324A
:0C0F73007F01120F547F0A7E00020F4223
:100D8900E4FF120EBE7F147E00120E1EC2A0C2A185
:100D99007F03120F2F7F057E00120E1E120F327F66
:100DA900647E00120F42120F327F02120EBE120F22
:100DB900327F28120F547F0C120F547F06120F54E2
:050DC9007F01020F5440
:100E3E00ED7006EF2480FA8004EF24C0FA7FE87E7E
:100E4E0003120F42AF02120F547F327E00020F4286
:080F9300D2A0120F54C2A022EB
:0C0DCE00E4FDFF120E3E7BFF7A0E790759
:100DDA008B088A09890AAB08AA09A90A120A65FFB7
:100DEA006010120F937401250AF50AE43509F50912
:030DFA0080E42270
:080D1A008F0B8E0A8D098C0875
:100D2200E4F50DE50DC3950C5039E47B0AFAF9F8A8
:100D3200AF0BAE0AAD09AC08120ABAAF038F22AFED
:100D42000BAE0AAD09AC08E47B0AFAF9F8120ABA4A
:100D52008F0B8E0A8D098C08740E250DF8A62205BC
:100D62000D80C0E4F50DE50DC3950C5019D2A0C35A
:100D7200E50C950DFF740D2FF8E62430FF120F5489
:060D8200C2A0050D80E097
:010D88002248
:100E5E0020901C3090FDD2B4D2B5C2B6C2B7D28C9F
:100E6E00E4FDFF120E3E7BFF7A0D79FD120DDA22A4
:100E7E0020911C3091FDD2B6D2B7C2B4C2B5D28C7D
:100E8E00E4FDFF120E3E7BFF7A0E7902120DDA227E
:100EF3002092103092FDC28CC2B4C2B5C2B6C2B742
:040F0300120DCE22DB
:100F07002093103093FDE523C394645003052322F7
:040F170075236422B8
:100F1B002094103094FDE523D39401400315232234
:040F2B007523012207
:0A0F7F002095063095FD75230A2227
:0A0F89002096063096FD75236422C1
:100BFB00C2B4C2B5C2B6C2B7758912758C9CD2ABE2
:100C0B00D2A9D2A8D288D28CD28ED2AF752332126F
:100C1B000D89120DCE120E5E120E7E120EF3120FF6
:100C2B0007120F1B120F7F120F897D01E4FF120EAB
:100C3B003E7BFF7A0E790C120DDAE4FD7F05120E66
:100C4B003E7BFF7A0E7914120DDAE4FD7F0B120E48
:100C5B003EAF23E4FCFDFE750C03120D1A7D017FE4
:100C6B0007120E3EAE2BAF2CE4FCFD750C04120DDF
:100C7B001A7D017F0B120E3E7BFF7A0E791A120D35
:030C8B00DA80927A
:03000B00020E9E44
:100E9E00C0E0C0D00526E526B46403752600E5261D
:100EAE00C395235004D2B08002C2B0D0D0D0E0326D
:03000300020F6683
:0D0F6600C0E00525E52570020524D0E0322D
:03001B00020B5A7B
:100B5A00C0E0C0F0C083C082C0D075D000C000C061
:100B6A0001C002C003C004C005C006C007052EE5C7
:100B7A002E7002052D758DFC758B18D28EE52E64AC
:100B8A00E87004E52D6403704D85242F852530F522
:100B9A0024F525F52DF52EAC2FAD301209AB7B4986
:100BAA007A2E791B78401208001209E48E278F28C2
:100BBA00E528252AFDE5273529FCE41209AB7B71D6
:100BCA007A3D790278401209091209E48E2B8F2C9A
:100BDA0085272985282AD007D006D005D004D00336
:100BEA00D002D001D000D0D0D082D083D0F0D0E0D3
:010BFA0032C8
:10080000EC4D6011E8497017ED33EC3304600DE4F2
:10081000FCFFFEFD22E933E8330470F8020A5012AF
:100820000A1B58046009E4CC2481500628500902B0
:100830000A5A284003020A57C0E0EB4A7044B980C4
:1008400006D0E0FB020A46EF4E701CBD8008EBFFAD
:10085000EAFEE9FD80EBE98DF0A4FEE5F00208E98F
:10086000E9CDF9EAFEEBFFEF89F0A4FCE5F0CE89D3
:10087000F0A42EFFE435F0CD89F0A42DFEE435F090
:100880008067EF4E7005BD80D780C3EF8BF0A4ACBE
:10089000F0EE8BF0A42CFCE435F0F8EF8AF0A42CF9
:1008A000E5F038FCE433CB8DF0A42CFCE5F03BF80C
:1008B000EE8AF0A42CFCE5F038F8E433CF89F0A4FC
:1008C0002CFCE5F038CF3400CE89F0A42FFFE5F002
:1008D0003EFEE433C98DF0A42EFEE5F039CD8AF05A
:1008E000A42FFFE5F03EFEE43DFD33D0E0FB5007D2
:1008F0000BBB000F020A5AEC2CFCEF33FFEE33FE69
:06090000ED33FD020A3296
:10090600020A5AEC5D046005E859047003020A50B5
:10091600120A1B580460F6EC4860F2EC7004FDFE07
:10092600FF22C860DB2481C85009C39860025006C4
:10093600020A579850CAF582E9294B4A7005AB82DC
:10094600020A4675F0007C1A7880C3EF9BEE9AED9A
:1009560099400DC3EF9BFFEE9AFEED99FDE842F03C
:10096600DC23ACF0D0E0FFD0E0FED0E0FDAB82208F
:10097600E7101BEB60BAEC2CFCEF33FFEE33FEED19
:1009860033FD020A32E803F830E705C0F075F000DF
:10099600EF2FFFEE33FEED33FD40B830E7C280AAFD
:1009A60075F020800E75F010800575F0087D007ECC
:1009B600007F003392D530D503120B4CEC33401038
:1009C600EF33FFEE33FEED33FDEC33FCD5F0ED22D5
:0E09D600E5F0247EA2D513CC92E7CDCEFF2211
:1009E400EDD2E7CD33EC3392D524814006E4FFFE0B
:1009F400FDFC22FCE4CFCECDCC24E0501174FF806A
:100A0400EDC3CC13CCCD13CDCE13CECF13CF047006
:070A1400F030D5DE020B4CAF
:100A1B00E9D2E7C933E833F892D5EDD2E7CD33EC21
:070A2B0033FC5002B2D5229A
:100A3200EC30E7100FBF000C0EBE00080DBD000425
:100A42000BEB6014A2D5EB13FCED92E7FD2274FFD1
:100A5200FCFDFEFF22E480F8A2D574FF13FC7D802A
:030A6200E480EF3E
:03000000020C8E61
:0C0C8E00787FE4F6D8FD758130020CD5AB
:100A6500BB010689828A83E0225002E722BBFE028F
:090A7500E32289828A83E49322C2
:100A7E0075F008758200EF2FFFEE33FECD33CDCC2F
:100A8E0033CCC58233C5829BED9AEC99E5829840B2
:100A9E000CF582EE9BFEED9AFDEC99FC0FD5F0D68F
:100AAE00E4CEFBE4CDFAE4CCF9A88222B800C1B9B9
:100ABE000059BA002DEC8BF084CFCECDFCE5F0CBF7
:100ACE00F97818EF2FFFEE33FEED33FDEC33FCEB30
:100ADE0033FB10D703994004EB99FB0FD8E5E4F9EB
:100AEE00FA227818EF2FFFEE33FEED33FDEC33FCD8
:100AFE00C933C910D7059BE99A4007EC9BFCE99ACC
:100B0E00F90FD8E0E4C9FAE4CCFB2275F010EF2F10
:100B1E00FFEE33FEED33FDCC33CCC833C810D70710
:100B2E009BEC9AE899400AED9BFDEC9AFCE899F84B
:0E0B3E000FD5F0DAE4CDFBE4CCFAE4C8F922DE
:0E0B4C00C3E49FFFE49EFEE49DFDE49CFC22BA
:100C9A00020BFBE493A3F8E493A34003F68001F26A
:100CAA0008DFF48029E493A3F85407240CC8C3335B
:100CBA00C4540F4420C8834004F456800146F6DF2A
:100CCA00E4800B0102040810204080900EDAE47ED2
:100CDA00019360BCA3FF543F30E509541FFEE4931F
:100CEA00A360010ECF54C025E060A840B8E493A3E6
:100CFA00FAE493A3F8E493A3C8C582C8CAC583CA11
:100D0A00F0A3C8C582C8CAC583CADFE9DEE780BEC8
:010EF20000FF
:00000001FF
